:020000040800F2
:10000000000F022045030008D52D00082D28000808
:10001000D12D0008F50E0008F7460008000000008A
:100020000000000000000000000000008D02000839
:100030009D1A000800000000E1020008B13C000821
:1000400069030008690300086903000869030008E0
:1000500069030008690300086903000869030008D0
:1000600069030008690300086903000869030008C0
:1000700069030008690300086903000869030008B0
:1000800069030008690300086903000869030008A0
:10009000F90E00086903000869030008AD20000894
:1000A0006903000869030008690300086903000880
:1000B00069030008293D0008690300086903000876
:1000C0006903000869030008690300086903000860
:1000D000690300085D43000869030008690300081C
:1000E0006903000869030008690300086903000840
:1000F0006903000869030008690300086903000830
:10010000690300086903000869030008690300081F
:100110006903000869030008353E00086903000808
:1001200069030008690300086903000869030008FF
:1001300069030008690300086903000869030008EF
:100140003910000869030008690300086903000802
:1001500031170008690300086903000869030008F3
:1001600069030008690300086903000869030008BF
:100170006903000869030008690300080000000023
:10018000690300086903000869030008690300089F
:10019000690300086903000869030008690300088F
:1001A00000000000000000006903000800F002F8F1
:1001B00000F05CF80AA090E8000C82448344AAF1A5
:1001C0000107DA4501D100F051F8AFF2090EBAE8A3
:1001D0000F0013F0010F18BFFB1A43F0010318477B
:1001E0007CA600009CA600000A444FF0000C10F80A
:1001F000013B13F0070408BF10F8014B1D1108BFA5
:1002000010F8015B641E05D010F8016B641E01F844
:10021000016BF9D113F0080F1EBF10F8014BAD1C94
:100220000C1B09D16D1E58BF01F801CBFAD505E0B2
:1002300014F8016B01F8016B6D1EF9D59142D6D30C
:10024000704700000023002400250026103A28BF34
:1002500078C1FBD8520728BF30C148BF0B60704738
:100260001FB509F057FD1FBD10B510BD00F01CFAF9
:100270001146FFF7F5FF06F047FC00F03AFA03B429
:10028000FFF7F2FF03BC00F09FFA00002A4B196849
:100290000868B0E8F04F80F30988BFF36F8F4FF024
:1002A000000080F3118870470000000006480068D5
:1002B000006880F3088862B661B6BFF34F8FBFF362
:1002C0006F8F00DF00BF00BF08ED00E0DFF80C001B
:1002D000016841F470010160704700BF88ED00E0E3
:1002E000EFF30980BFF36F8F134B1A681EF0100FE6
:1002F00008BF20ED108A20E9F04F106008B44FF0DD
:10030000500080F31188BFF34F8FBFF36F8F08F059
:1003100089F94FF0000080F3118808BC196808685B
:10032000B0E8F04F1EF0100F08BFB0EC108A80F359
:100330000988BFF36F8F704724000020EFF305801A
:10034000704700000C48016841F4700101600B48DF
:1003500080470B480047FEE7FEE7FEE7FEE7FEE7C3
:10036000FEE7FEE7FEE7FEE7FEE700000548064978
:10037000044A064B7047000088ED00E0C13C0008CD
:10038000AD010008000B0220000F0220000B02202C
:100390009FED1A1AF5EE000A40EE010ABDEEE00AE2
:1003A000F5EEC00A10EE100AF1EE10FA38BF401E4A
:1003B00000EE100A1349F7EE001AB8EEC00A30EE4C
:1003C000C00ADFED0F0A20EE200AFCEEC00A10EE94
:1003D000900AC0F3080000EE900A01EB8000F8EEEE
:1003E000600A90ED011A70EE600A90ED000A71EE5D
:1003F000E01A21EE800A00EE810A704783F9223E5E
:100400000000004458A00008DFED190AB5EEC00A4C
:1004100060EE200ABDEEE01A11EE100AF1EE10FABD
:1004200038BF401E00EE100A1349F7EE001AB8EE6E
:10043000C00A30EEC00ADFED0F0A60EE200ABCEE03
:10044000E00A10EE100AC0F3080000EE100A01EBFB
:100450008000B8EE400A90ED011A70EEC00A90EDEF
:10046000000A71EEE01A21EE800A00EE810A704760
:1004700083F9223E0000004458A0000810B5431C38
:1004800002E010F8011B71B18107FAD14FF001327F
:1004900002C88C1A8C4314EAC211F9D0C01A0A0699
:1004A00003D0C01E10BDC01A10BD0A0401D0801EAA
:1004B00010BD0902FCD0401E10BD032A40F230805E
:1004C00010F0030C00F0158011F8013BBCF1020F95
:1004D000624498BF11F801CB00F8013B38BF11F816
:1004E000013BA2F1040298BF00F801CB38BF00F82D
:1004F000013B11F0030300F02580083AC0F00880AA
:1005000051F8043B083A51F804CBA0E80810F5E78D
:10051000121D5CBF51F8043B40F8043BAFF3008070
:10052000D20724BF11F8013B11F801CB48BF11F8E5
:10053000012B24BF00F8013B00F801CB48BF00F8B5
:10054000012B704710B5203AC0F00B80B1E818506D
:10055000203AA0E81850B1E81850A0E81850BFF4AD
:10056000F5AF5FEA027C24BFB1E81850A0E818504C
:1005700044BF18C918C0BDE810405FEA827C24BFA0
:1005800051F8043B40F8043B08BF7047D20728BF2E
:1005900031F8023B48BF11F8012B28BF20F8023B7D
:1005A00048BF00F8012B704702F0FF0343EA032223
:1005B00042EA024200F037B84FF0000200B513469D
:1005C00094469646203922BFA0E80C50A0E80C5073
:1005D000B1F12001BFF4F7AF090728BFA0E80C5024
:1005E00048BF0CC05DF804EB890028BF40F8042B1D
:1005F00008BF704748BF20F8022B11F0804F18BF8A
:1006000000F8012B704770477047704710B500F035
:100610002BF8006810BD10B5044600F025F8046002
:1006200010BD4FF000020429C0F0128010F0030C3E
:100630003FF4C4AFCCF1040CBCF1020F18BF00F8BA
:10064000012BA8BF20F8022BA1EB0C01FFF7B6BFCE
:100650005FEAC17C24BF00F8012B00F8012B48BFE2
:1006600000F8012B70470000004870479C0A0220E8
:100670001FB584B000200A9C06AB04AA02A900940E
:10068000AFF3008018B1DDE9020108B010BD0348E6
:10069000204000F037F800200146F6E70000207CFB
:1006A000004870479C0A02207546FFF7F9FFAE46E6
:1006B00005006946534620F00700854618B020B56E
:1006C000FFF754FEBDE820404FF000064FF0000752
:1006D0004FF000084FF0000B21F00701AC46ACE8EA
:1006E000C009ACE8C009ACE8C009ACE8C0098D4657
:1006F000704710B50446AFF300802046BDE81040B7
:10070000FFF7BDBD10B500F009F8BDE81040AFF32C
:100710000080002801D000F057B8704710B50228BB
:1007200003D0410103D50DA112E0002010BD01014D
:1007300001D50FA10CE0C10001D511A108E0810095
:1007400001D512A104E0400001D513A100E0002171
:1007500015A000F03FF8012010BD0000496E766141
:100760006C6964204F7065726174696F6E0000007F
:10077000446976696465204279205A65726F000089
:100780004F766572666C6F7700000000556E646589
:1007900072666C6F77000000496E65786163742043
:1007A000526573756C7400005349474650453A20B2
:1007B00041726974686D65746963206578636570FA
:1007C00074696F6E3A20000001491820ABBEFEE745
:1007D0002600020070B505460C460A2000E06D1C9C
:1007E00000F011F835B128780028F8D102E0641C37
:1007F00000F009F814B120780028F8D1BDE8704065
:100800000A20AFF3008008B569468DF80000032088
:10081000ABBE08BD7047CA430260704721B1826811
:1008200042F00102826003E0826822F001028260ED
:10083000704700000021084A1168084A1140D0E9B9
:1008400000231A4383681A43C3681A431143044AB6
:10085000C2F804137047000004230140E030FCFF9D
:10086000002001400146C86C80B27047024600205B
:1008700013680B400BB1012000E00020704700001E
:1008800030B50246002000235068104C20400D79FE
:100890000C6844EA05242043506090680C4C2040CA
:1008A000D1E903542C438D682C434D7944EA450427
:1008B00020439060D06A20F470000C7D641EE4B286
:1008C000234340EA0350D06230BD0000FFFEFFFC2E
:1008D000FDF7FFC0F0B504460D4600200021092DAC
:1008E00011DDE068A5F10A0606EB4607072606FAC1
:1008F00007F18843A5F10A0606EB460603FA06F15E
:100900000843E0600CE0206905EB4507072606FA7E
:1009100007F1884305EB450603FA06F10843206119
:10092000072A0FDA606B561E06EB86071F2606FAAB
:1009300007F18843561E06EB860605FA06F10843C2
:10094000606322E00D2A0FDA206BD61F06EB8607C4
:100950001F2606FA07F18843D61F06EB860605FA1E
:1009600006F10843206310E0E06AA2F10D0606EBF1
:1009700086071F2606FA07F18843A2F10D0606EB4B
:10098000860605FA06F10843E062F0BD816841F091
:10099000804181607047000038B10849096841F41E
:1009A0000001074AC2F8041306E00449096821F46B
:1009B0000001034AC2F804137047000004230140F9
:1009C0000020014010B52DED028BB0EE408AB0EE54
:1009D000480A03F0E1FEBDEC028B10BD10B52DED11
:1009E000028BB0EE408AF0EE608AF0EE680AB0EE5C
:1009F000480A03F067FFBDEC028B10BD10B52DED6A
:100A0000028BB0EE408AB0EE480AFFF7C1FCBDECA5
:100A1000028B10BDF0EE400AF5EEC00AF1EE10FABE
:100A200002DDB0EE600A7047B1EE600AFBE700003D
:100A300018B19FED020A80ED000A70470000000027
:100A400018B19FED020A80ED000A7047DF8FB441B4
:100A500070B52DED0C8B84B006460C4615469FED07
:100A6000990AF0EE408A9FED970AB0EE409A9FED0A
:100A7000950AF0EE40BA9FED930AF0EE409A9FED92
:100A8000910AB0EE40AA0EB104B11DB904B0BDEC9C
:100A90000C8B70BD8C48FFF7CBFF8C48FFF7D0FF65
:100AA0008A48D0ED000A9FED8A1A60EE810AB0EE06
:100AB000600A00F039F9F0EE408A28EEA80AF0EE5C
:100AC000408A8248D0ED000AB0EE001A60EE810A3A
:100AD0009FED7F1A60EE810AB0EE600A00F024F903
:100AE000B0EE409A29EE090AB0EE409ADFED790A9D
:100AF000B7EE000A00EEA80ADFED770A00EEC90A99
:100B0000DFED760A20EE200A754880ED000A6E4877
:100B100090ED000ADFED730A80EE201AB7EE000AAE
:100B200031EE000A20EE000A6D48D0ED000A80EE9A
:100B3000801A6D4880ED001A94ED000AB5EEC00AE7
:100B4000F1EE10FA0DD194ED010AB5EEC00AF1EE06
:100B500010FA06D194ED020AB5EEC00AF1EE10FAD1
:100B600046D09FED580AB0EE408A002001900290D6
:100B70000390D4ED000A60EEA00A94ED011AD4EDC2
:100B8000011A41EE210A94ED021AD4ED021A41EE47
:100B9000210AB0EE600A00F0A9F8B0EE408A94EDA8
:100BA000000A20EE080A8DED010A94ED010A20EEFC
:100BB000080A8DED020A94ED020A20EE080A8DED76
:100BC000030ADDED010AF1EE600AB0EE600AFFF7FC
:100BD000F9FEF0EE409A9DED031AF0EE410A9DED0C
:100BE000021AB0EE410AFFF7F9FEB0EE40AA07E0A4
:100BF0009FED340AF0EE409A9FED320AB0EE40AA23
:100C000095ED000AB5EEC00AF1EE10FA0DD195EDA2
:100C1000010AB5EEC00AF1EE10FA06D195ED020A0E
:100C2000B5EEC00AF1EE10FA3CD0B0EE690A00F061
:100C30007BF8B0EE408AB0EE690AFFF7DFFEB0EE57
:100C400040DAB0EE4A0A00F06FF8F0EE40AAB0EEDB
:100C50004A0AFFF7D3FEB0EE40BA28EE2A0AD5EDD5
:100C6000010A20EE200AD5ED000A0DEE200A68EEFA
:100C70000B0A95ED021A00EE810AB0EE40CA95ED1E
:100C8000010A20EE0B0AD5ED020A0AEEE00AF0EEA8
:100C900040CAF0EE6C0AB0EE4C0AFFF79FFEF0EE91
:100CA00040BA03E09FED070AF0EE40BAB0EE4A1AF0
:100CB000F0EE690AB0EE6B0A304604F0F9F800BFB6
:100CC000E4E6000000000000D0010020D401002074
:100CD00035FA8E3CC1BFAD3B9DF8C5362F7C1C411B
:100CE000D8010020506CC24ADC010020F0EE400A1E
:100CF000F6EE001A60EEA11AB0EE611AB0EE600ACC
:100D000010EE100A0749A1EB600000EE100A21EE78
:100D1000002AF7EE081A42EE401A61EE801AB0EE91
:100D2000610A7047DF59375F10B52DED028BB0EEC9
:100D3000408AB0EE480AFFF767FBBDEC028B10BD9E
:100D40002DE9F0412DED028B9AB00546B0EE408AB8
:100D50000E46174698460020179018901990149048
:100D6000159016904DB146B13FB1B8F1000F04D0C7
:100D7000B5EEC08AF1EE10FA05D100201AB0BDEC34
:100D8000028BBDE8F08196ED000A8DED170A96ED15
:100D9000010A8DED180A96ED020A8DED190A97EDFC
:100DA000000A8DED140A97ED010A8DED150A97EDF5
:100DB000020A8DED160A17AA14A9284603F0CAFEE6
:100DC000402104A8FFF7F8FB00200090019002905A
:100DD0000390002417A904A807F058F800BF30E0DA
:100DE00004A800EB041090ED000AD5ED000A20EEF7
:100DF000200A04A800EB0410D0ED010A95ED011AB9
:100E000000EE810A04A800EB0410D0ED020A95ED73
:100E1000021A00EE810A04A800EB0410D0ED030AC8
:100E200095ED031A00EE810A20EE080AF0EE000AA2
:100E300080EE201A684600EB840080ED001A601CEA
:100E4000C4B2042CCCDB002410E005EB840090ED50
:100E5000000A684600EB8400D0ED000A30EE200A5C
:100E600005EB840080ED000A601CC4B2042CECDBAE
:100E7000284606F085FE012080E738B54FF4407023
:100E800001F0E6FF4FF47A7005F068F905F0AEFD69
:100E900006F08CFF05F0FAFF05F0BCFA5A2147F284
:100EA000305004F0BBF805F079FD5A214EF6602071
:100EB00002F0D2FF002005231A460121009000F025
:100EC00033F8002005231A460121009000F0CCF8E9
:100ED000002408E0204606F00DF840F2C52005F099
:100EE0009BF9601CC4B2042CF4DB06F08BFE04F00A
:100EF00017FA38BD00BFFEE710B50221084800F020
:100F000015FA58B10221064800F038F9054A0021C7
:100F1000034800F02EFB034800F0A4FB10BD0000C6
:100F200000640040E00502202DE9F0418AB004464B
:100F30000D4616461F46DDF840800121082002F0CC
:100F4000B9F80121480602F0C5F80121480602F06F
:100F5000D1F800214FF0007002F0CCF80320089087
:100F600002208DF8240000208DF8260003208DF843
:100F7000250001208DF8270008A92D4801F010FA5E
:100F8000092200212A4801F053FA092201212848A8
:100F900001F04EFA00208DF81A0001208DF81B0098
:100FA00000208DF81C008DF81D008DF81E008DF8B6
:100FB0001F008DF816808DF817408DF818608DF899
:100FC0001950ADF8147005A91A4800F048FA00202D
:100FD0008DF80E008DF80F0001208DF81000002014
:100FE000ADF80400ADF80600ADF80800ADF80A0051
:100FF000ADF80C0001208DF8110001A800F012F9E5
:10100000012202210B4800F021FA14208DF8000083
:1010100004208DF8010000208DF8020001208DF8D9
:101020000300684601F0D8FE00200AB0BDE8F08158
:10103000000C02400064004010B50221084800F096
:1010400075F958B10221064800F098F8054A0021C8
:10105000034800F08EFA034800F004FB10BD0000C6
:1010600000680040F40502202DE9F0418AB00446F2
:101070000D4616461F46DDF840800121022002F091
:1010800019F80121880602F025F80121880602F0EE
:1010900031F800214FF0806002F02CF84FF44050FE
:1010A000089002208DF8240000208DF826000320EF
:1010B0008DF8250001208DF8270008A92D4801F0A2
:1010C0006FF909220C212B4801F0B2F909220D21F8
:1010D000284801F0ADF900208DF81A0001208DF8A4
:1010E0001B0000208DF81C008DF81D008DF81E00DF
:1010F0008DF81F008DF816808DF817408DF8186058
:101100008DF81950ADF8147005A91B4800F0A7F927
:101110000E208DF80E0000208DF80F0001208DF8B4
:1011200010000020ADF80400ADF80600ADF808008E
:10113000ADF80A00ADF80C0001208DF8110001A8EF
:1011400000F070F8012202210B4800F07FF94020E6
:101150008DF8000004208DF8010000208DF80200B9
:1011600001208DF80300684601F036FE00200AB029
:10117000BDE8F0810004024000680040B1F5007F46
:101180003AD00FDC202928D006DC01291CD0042904
:101190001DD0082940D11DE0402921D0B1F5807F24
:1011A0003AD126E0B1F5004F31D006DCB1F5806FC1
:1011B00025D0B1F5006F2FD124E0B1F5803F12D0DA
:1011C000B1F5003F28D111E0154A826025E00822E0
:1011D000C26022E01022C2601FE0082202611CE00F
:1011E0001022026119E00822426016E010224260DB
:1011F00013E00422426010E0042242600DE0042269
:1012000042600AE0002282610422426005E000227E
:1012100082610422426000E000BF00BF704700000E
:101220000101010010B50021837A012202FA03F1C5
:101230003D4A126842F001023B4B1A603A4A1C32A6
:1012400012688A43384B1C331A60027BCAB9364A8B
:101250000C3212688A43344B0C331A604288C388BC
:1012600042EA0343304A4032847A42F834300288FA
:10127000838842EA03432C4A4032847A02EBC40258
:101280005360027B012A19D1274A0C3212680A43A3
:10129000254B0C331A604288038842EA0343224AF2
:1012A0004032847A42F83430C288838842EA034369
:1012B0001D4A4032847A02EBC4025360C27A3AB9C2
:1012C000194A121D12688A43174B1B1D1A6006E04B
:1012D000154A121D12680A43134B1B1D1A6002891E
:1012E00032B9114A143212688A430F4B14331A6010
:1012F0000289012A06D10C4A143212680A430A4BA9
:1013000014331A60427B012A06D1074A1C32126844
:101310000A43054B1C331A60034A126822F001028B
:10132000014B1A6010BD00000066004070B5044615
:101330000D46002660692840002871D0B5F5807FF1
:101340005CD010DC082D35D006DC012D20D0022D1C
:1013500024D0042D72D127E0102D31D0202D35D08E
:10136000402D6BD138E0B5F5004F60D009DCB5F504
:10137000007F49D0B5F5806F4CD0B5F5006F5DD1D9
:101380004FE0B5F5803F2DD0B5F5003F56D12FE0A9
:10139000A0682D4900F0C2F9064651E0E06803213B
:1013A00000F0BCF906464BE0E068082100F0B6F911
:1013B000064645E0E068102100F0B0F906463FE03F
:1013C0002069032100F0AAF9064639E020690821C6
:1013D00000F0A4F9064633E02069102100F09EF9E0
:1013E00006462DE06068082100F098F9064627E0DF
:1013F0006068102100F092F9064621E0A069012101
:1014000000F08CF906461BE0A069022100F086F985
:10141000064615E0A069042100F080F906460FE0B9
:101420000FE0A069702100F079F9064608E06068D5
:10143000042100F073F9064602E0FFE7002600BF32
:1014400000E00026304670BD010101001AB1436979
:101450000B43436102E043698B434361704730B5FE
:10146000024600200023146824F00204146014686B
:1014700044F00104146000E05B1C546804F00104B3
:101480001CB94FF6FF74A342F6D1546804F001046E
:101490000CB900206CE08C79012C04D1146844F064
:1014A0008004146003E0146824F080041460CC7994
:1014B000012C04D1146844F04004146003E0146863
:1014C00024F0400414600C7A012C04D1146844F018
:1014D0002004146003E0146824F0200414604C7AA3
:1014E000012C04D1146844F01004146003E0146863
:1014F00024F0100414608C7A012C04D1146844F098
:101500000804146003E0146824F008041460CC7A22
:10151000012C04D1146844F00404146003E014683E
:1015200024F0040414608C78A407CD7844EA0564A0
:101530000D7944EA05444D7944EA05540D886D1E41
:101540002C43D461146824F001041460002300E0EB
:101550005B1C546804F001041CB14FF6FF74A342F5
:10156000F6D1546804F001040CB1002000E0012021
:1015700030BD10B500F5D87303EB01131B6803F001
:1015800004031372137A53B900F5D87303EB0113F4
:101590001B6840F2FF7404EA5353136009E000F53E
:1015A000D87303EB01131B686FF0604404EAD303A4
:1015B000536000F5D87303EB01131B6803F00203BB
:1015C000537200F5D87303EB01135B6803F00F034C
:1015D000937200F5D87303EB01135B681B0AD37495
:1015E00000F5D87303EB01139B68D37200F5D87331
:1015F00003EB01139B681C0A147300F5D87303EB0B
:1016000001139B681C0C547300F5D87303EB011392
:101610009B681B0E937300F5D87303EB0113DB6813
:10162000D37300F5D87303EB0113DB681C0A147441
:1016300000F5D87303EB0113DB681C0C547400F540
:10164000D87303EB0113DB681B0E937421B9C368D5
:1016500043F02003C36003E0036943F02003036108
:1016600010BD000010B504462068A0F2012030B182
:10167000012805D0022804D0032848D102E000BF89
:1016800000BF00BF2078401E22490870084600783D
:1016900000EB8000204931F8100000B21D490978A4
:1016A00001EB81011C4A02EB41010881207BE17AB8
:1016B00040EA01201749097801EB810122F8110065
:1016C000A17B607B41EA002000B21249097801EB5E
:1016D000810102EB41014880217CE07B41EA00204E
:1016E00000B20C49097801EB810102EB41018880CD
:1016F000607C0849097801EB810102EB41018871A6
:1017000004490978491CC8B200F032FA00E000BF71
:1017100000BF10BDF8000020B805022002460020DE
:1017200002EA01030BB1012000E000207047000035
:1017300010B51049104800F043F9C8B10D490E48E2
:1017400000F022F805F006FA07F0F4FB01280FD0AC
:101750000A490B48006806F0EFFD0848006838B1F8
:101760004FF0805007490860BFF34F8FBFF36F8F72
:1017700010BD00000008002088640240AC01002079
:101780003001002004ED00E00246094B9A4201D2EC
:10179000084801E00648103801F000531BB1064B21
:1017A0000B40C36002E0044B0B40836070470000B5
:1017B00010640240006002407D0F7D0F0246094B1D
:1017C0009A4201D2084801E00648103801F000535F
:1017D0001BB1064B0B40C36002E0044B0B4083601F
:1017E0007047000010640240006002407D0F7D0FD2
:1017F00021B1026842F00102026003E0026822F0B7
:101800000102026070470000016821F001010160DF
:101810000021016041608160C1600161212141615D
:101820004A49884204D13D21484A103A91608CE0EF
:1018300046491831884205D14FF47461434A103A41
:10184000916082E041493031884205D14FF47411F2
:101850003E4A103A916078E03C494831884205D1CF
:101860004FF07461394A103A91606EE03749603147
:10187000884204D13649354A103AD16065E033498F
:101880007831884204D13349304A103AD1605CE063
:101890002E499031884204D12F492C4A103AD16008
:1018A00053E02A49A831884205D14FF03D51274ADB
:1018B000103AD16049E02949884204D13D21274AA4
:1018C000083A116041E025491831884205D14FF4AA
:1018D0007461224A083A116037E020493031884269
:1018E00005D14FF474111D4A083A11602DE01B49CF
:1018F0004831884205D14FF07461184A083A1160A6
:1019000023E016496031884204D11149134A121F5D
:1019100011601AE011497831884204D10D490F4A0B
:10192000121F116011E00D499031884204D10A491B
:101930000A4A121F116008E00849A831884204D100
:101940004FF03D51054A121F116070471060024070
:101950003D000020400F002000003D2010640240A8
:1019600021B1026842F48022026003E0026822F49E
:1019700080220260704722B1036843F400230360B1
:1019800003E0036823F4002303600161704701460C
:1019900000200A6802F001020AB1012000E00020E4
:1019A00070470146486880B27047014600200A68C7
:1019B00002F400220AB1012000E00020704700007C
:1019C00030B503460A46002000240B4DAB4201D23D
:1019D0000A4901E00849103902F000550DB14C6880
:1019E00000E00C68064D2C4004EA02050DB1012010
:1019F00000E0002030BD00001064024000600240A2
:101A00007D0F7D0F10B501F080034BB122B143690A
:101A100043F08003436103E0436923F080034361A3
:101A200080290BD02AB1036801F01E042343036010
:101A300004E0036801F01E04A343036010BD00002E
:101A400010B500220268134B1A40CC680B68234380
:101A50004C6923438C692343CC6923430C6A234399
:101A60004C6A23438C6A23434C6B23438C6B234384
:101A70001A430260426922F00702D1E90B34234382
:101A80001A4342610B6943604B6883608B68C36093
:101A900010BD00003F801CF041607047704700009F
:101AA00070B50446002500BF11E005EBC5002A49CA
:101AB00001EB8000C07CC0F3401018B1284604F050
:101AC0007BFC02E0284604F083FC681CC5B2042DB0
:101AD000EBDD062C05D104F0D3FF06201F4908706A
:101AE00037E01E480078A04201D01C4804701C4812
:101AF000007878B91B480078401C1A4908700846DD
:101B00000078322805DD0020087014480078144958
:101B1000087070BD1448007880B904F0BBFF13480A
:101B2000007840B10020114908700D480078401E2F
:101B30000B49087002E001200C4908700A4800783F
:101B4000401C0949087008460078142801DD00206F
:101B5000087000BFDDE70000340802201D010020EE
:101B600020010020210100201E0100201F01002073
:101B700010B5044604EBC400454901EB8000006841
:101B800004EBC401424A02EB8101486007F0E2F92C
:101B900004EBC4013E4A02EB8101086004EBC4007F
:101BA000114601EB8000C07CC0F38010B0B104EBA3
:101BB000C40001EB8000C07C20F0400004EBC401B5
:101BC00002EB8101C87404EBC400114601EB8000F4
:101BD000006804EBC40102EB8101C86004EBC4009F
:101BE0002B4901EB8000806990B304EBC401284AC3
:101BF00002EB81018869804758B304EBC400244993
:101C000001EB8000C07C20F02000203004EBC401F8
:101C10001F4A02EB8101C87404EBC400114601EBBA
:101C20008000C07C20F08000803004EBC40102EB17
:101C30008101C87404EBC400114601EB8000006A06
:101C400028B304EBC40102EB8101086A80471EE05F
:101C50000FE0FFE704EBC4000D4901EB8000C07CFE
:101C600020F0800004EBC401094A02EB8101C87432
:101C70000DE004EBC400064901EB8000C07C20F0BD
:101C8000800004EBC401024A02EB8101C87410BD5C
:101C90003408022010B588B004462022584968460E
:101CA000FEF750FC00209EE000EB40013DF81120C3
:101CB00000EBC001534B03EB8101098A62F30B0176
:101CC00000EBC00203EB8202118200EB40016A4686
:101CD00002EB41014A8800EBC00103EB8101B1F83E
:101CE000111062F30F1100EBC00203EB8202A2F8A5
:101CF000111000EB40016A4602EB4101097900EB4B
:101D0000C00203EB8202D27C61F3440200EBC0010B
:101D100003EB8101CA74002100EBC00203EB8202D5
:101D2000916100EBC00203EB8202D16100EBC002C3
:101D300003EB8202116200EBC0011A4602EB810143
:101D4000C97C21F00101491C00EBC00203EB8202B7
:101D5000D17400EBC0011A4602EB8101C97C21F06D
:101D60002001203100EBC00203EB8202D17400EBB2
:101D7000C0011A4602EB8101C97C21F040014031CB
:101D800000EBC00203EB8202D17400EBC0011A46E3
:101D900002EB8101C97C21F08001803100EBC0029F
:101DA00003EB8202D1749FED180A10EE101A00EBBB
:101DB000C00203EB8202516100EBC0011A4602EB44
:101DC00081010C6000EBC00102EB81014C6000EB73
:101DD000C00102EB81018C6000EBC00102EB8101CC
:101DE000CC60411CC8B20528FFF65EAF0748054924
:101DF00088610748C8610748086208B010BD000044
:101E0000FC9F000834080220000000007136000822
:101E1000197C0008237C000807F09CF89E490860A4
:101E200008460068FFF736FF392006F0D7F932E19F
:101E300007F090F89849086005209849087098487C
:101E400090F8C70020F04001954880F8C71090F83E
:101E5000C70020F02001924880F8C710002409E153
:101E600004EBC4008E4901EB8000C07C00F001004F
:101E700000B9FEE004EBC400894901EB8000006872
:101E800085490968081A04EBC401854A02EB8101FF
:101E9000098AC1F30B01884260D904EBC4001146E2
:101EA00001EB8000C07CC0F3401008BB04EBC40011
:101EB00001EB8000C07C20F04000403004EBC40106
:101EC00002EB8101C87404EBC400114601EB8000F1
:101ED000C07C20F02000203004EBC40102EB810123
:101EE000C8746D48006804EBC40102EB810188608E
:101EF00004EBC4006A4901EB8000C07CC0F34300DE
:101F00006649097801EBC101654A02EB8101C97C90
:101F1000C1F34301884201DD60490C70604890F8CC
:101F2000C70020F0400040305D4981F8C7000846F6
:101F300090F8C70020F02000203081F8C70004EBA3
:101F4000C40001EB8000C069002806D004EBC40186
:101F5000534A02EB8101C869804789E004EBC40061
:101F60004F4901EB8000C0684B490968081A04EB2F
:101F7000C4014B4A02EB8101B1F81110B0EB111F03
:101F80001BD204EBC400114601EB8000C07C20F0A2
:101F9000400004EBC40102EB8101C87404EBC400EF
:101FA000114601EB8000C07C20F02000203004EBC3
:101FB000C40102EB8101C8745AE004EBC400384943
:101FC00001EB8000C07C20F0400004EBC401344AE7
:101FD00002EB8101C87404EBC400114601EB8000E0
:101FE000C07CC00968B104EBC40001EB8000C07C78
:101FF00020F02000203004EBC40102EB8101C87402
:102000000DE004EBC400264901EB8000C07C20F009
:10201000200004EBC401224A02EB8101C87404EBE6
:10202000C4001F4901EB8000006804EBC4011C4A96
:1020300002EB8101496888421AD904EBC4001146B9
:1020400001EB8000006804EBC40102EB81014968E8
:10205000401A00EE100AF8EE400A9FED121A81EEC7
:10206000200A10EE100A04EBC40102EB8101486162
:1020700000BF641C052CFFF6F3AE08490978491C23
:10208000C8B2FFF70DFD0A2006F0A8F8002005F001
:102090004FFF05490860CBE6180100201C01002015
:1020A0003408022000007A441401002010B54FF4D7
:1020B000807000F011F840B14FF4807000F006F825
:1020C00004F050FD172001F037FC10BD01490860F5
:1020D00070470000143C014001460020034A12688A
:1020E0000A400AB1012000E000207047143C014082
:1020F000002123498279002A3AD00A4612680368EF
:102100009A430B461A600A1D126803689A430B1D16
:102110001A60027911440A6803681A430A60184A6F
:102120000832126803689A43154B08331A601A1D67
:10213000126803689A43124B0C331A604279102AD2
:102140000ED11A1F126803681A430D4B08331A6028
:102150001A1D126803681A43094B0C331A600DE00C
:102160000749427911440A6803681A430A6005E086
:10217000027911440A6803689A430A6070470000B4
:10218000003C014001490860704700000C3C0240DF
:1021900070B504460A460026092502B909E0012A5D
:1021A00001D1160205E0022A01D1160201E04FF426
:1021B000407600F09FF80546092D28D115480068A3
:1021C00020F44070134908600846006830430860F6
:1021D0000846006820F0F80008600846006844F0EF
:1021E000020108430B4908600846006840F480304B
:1021F000086000F07FF805460648006820F00200FD
:10220000044908600846006820F0F8000860284685
:1022100070BD0000103C024009201349096801F418
:102220008031B1F5803F01D101201CE00E490968E1
:1022300001F0100109B1062015E00B49096801F40D
:10224000807109B102200EE00749096801F0E00140
:1022500009B1072007E00449096801F0020109B14A
:10226000082000E0092070470C3C02400348006849
:1022700040F000400149086070470000103C0240F7
:1022800030B502460C46092500F034F80546092D04
:1022900019D10E48006820F440700C4908600846C7
:1022A000006840F4007008600846006840F00100D3
:1022B0000860146000F01EF805460448006820F02D
:1022C000010002490860284630BD0000103C024071
:1022D0000548006800F0004028B1044802490C3964
:1022E0000860034808607047103C024023016745BE
:1022F000AB89EFCD08B509200090FFF78DFF009066
:1023000002E0FFF789FF00909DF800000128F8D057
:102310009DF8000008BD000000B585B00121022035
:1023200000F0C8FE0121880300F0F4FE082101201E
:1023300001F0FAFB4FF48070009000208DF804004B
:1023400001208DF8060000208DF8070003208DF88D
:1023500005006946114800F023F84FF480700290A0
:1023600000208DF80C0008208DF80D0001208DF85C
:102370000E0002A8FFF7BCFE17208DF81000052004
:102380008DF8110000208DF8120001208DF8130047
:1023900004A800F021FD05B000BD000000040240CB
:1023A000F0B50A4600210023002400BF3DE00125CE
:1023B00005FA01F3156805EA03049C4234D1056867
:1023C0004F000326BE40B543056015794E00B54069
:1023D0000668354305601579012D02D01579022D67
:1023E00016D185684F000326BE40B54385605579F8
:1023F0004E00B540866835438560456801268E40AD
:10240000B5434560456896798E40B6B23543456020
:10241000C5684F000326BE40B543C560D5794E0060
:10242000B540C6683543C560491C1029BFD3F0BD0F
:10243000F0B5002300244D07ED0E02FA05F3CE108F
:1024400000F1200555F826504E07F70E0F26BE4026
:10245000B543CF1000F1200646F82750CE1000F10A
:10246000200555F8265045EA0304CE1000F120055A
:1024700045F82640F0BD41837047018370474269AB
:102480004A40426170470000014600205C4A914288
:1024900003D2B1F1006F00D3B0E05A4A914204D2A6
:1024A000574A914201D30820A8E0574A914204D2EA
:1024B000544A914201D31020A0E0544A914204D2E0
:1024C000514A914201D3182098E0514A914204D2D6
:1024D0004E4A914201D3202090E04E4A914204D2CC
:1024E0004B4A914201D3282088E04B4A914204D2C2
:1024F000484A914201D3302080E0484A914204D2B8
:10250000454A914201D3382078E0454A914204D2AD
:10251000424A914201D3402070E0424A914204D2A3
:102520003F4A914201D3482068E03F4A914204D299
:102530003C4A914201D3502060E0B1F1016F04D2D6
:10254000394A914201D3582058E0384A914204D286
:10255000B1F1016F01D3802050E0354A914204D29D
:10256000324A914201D3882048E0324A914204D253
:102570002F4A914201D3902040E02F4A914204D249
:102580002C4A914201D3982038E02C4A914204D23F
:10259000294A914201D3A02030E0294A914204D235
:1025A000264A914201D3A82028E0264A914204D22B
:1025B000234A914201D3B02020E0234A914204D221
:1025C000204A914201D3B82018E0204A914204D217
:1025D0001D4A914201D3C02010E01D4A914204D20D
:1025E0001A4A914201D3C82008E01A4A914204D203
:1025F000174A914201D3D02000E0D8207047000054
:10260000004000080080000800C000080000010829
:102610000000020800000408000006080000080886
:1026200000000A0800000C0800000E080040100816
:102630000080100800C010080000110800001208F7
:1026400000001408000016080000180800001A080E
:1026500000001C0800001E08014600205D4A91424F
:1026600004D2B1F1006F01D31046B2E05A4A914250
:1026700004D2584A914201D35748AAE0574A91429E
:1026800004D2554A914201D35448A2E0544A91429F
:1026900004D2524A914201D351489AE0514A9142A0
:1026A00004D24F4A914201D34E4892E04E4A9142A1
:1026B00004D24C4A914201D34B488AE04B4A9142A2
:1026C00004D2494A914201D3484882E0484A9142A3
:1026D00004D2464A914201D345487AE0454A9142A4
:1026E00004D2434A914201D3424872E0424A9142A5
:1026F00004D2404A914201D33F486AE03F4A9142A6
:1027000004D23D4A914201D33C4862E0B1F1016FED
:1027100005D23A4A914202D34FF0016059E0384A5B
:10272000914204D2B1F1016F01D3104651E0354A14
:10273000914204D2324A914201D3324849E0324AAE
:10274000914204D22F4A914201D32F4841E02F4AAF
:10275000914204D22C4A914201D32C4839E02C4AB0
:10276000914204D2294A914201D3294831E0294AB1
:10277000914204D2264A914201D3264829E0264AB2
:10278000914204D2234A914201D3234821E0234AB3
:10279000914204D2204A914201D3204819E0204AB4
:1027A000914204D21D4A914201D31D4811E01D4AB5
:1027B000914204D21A4A914201D31A4809E01A4AB6
:1027C000914204D2174A914201D3174801E04FF0D9
:1027D00002607047004000080080000800C0000848
:1027E00000000108000002080000040800000608BC
:1027F0000000080800000A0800000C0800000E088D
:10280000004010080080100800C0100800001108E7
:102810000000120800001408000016080000180844
:1028200000001A0800001C0800001E0800BFFEE798
:10283000F0B50546059C00207FE093ED050A00EB0E
:102840004006404F07EB8606D6ED000A20EE200A30
:10285000D3ED060A00EB400607EB860696ED011A5B
:1028600000EE810AD3ED070A00EB400607EB86066F
:1028700096ED021A00EE810A334E06EB8006D6ED85
:10288000000A30EE200A05EB800686ED000A93ED83
:10289000010A00EB40062D4F07EB8606D6ED000A35
:1028A00020EE200AD3ED020A00EB400607EB860675
:1028B00096ED011A00EE810AD3ED030A00EB400603
:1028C00007EB860696ED021A00EE810A204E06EB13
:1028D0008006D6ED000A30EE200A01EB800686ED78
:1028E000000A94ED010A00EB40061A4F07EB86063A
:1028F000D6ED000A20EE200AD4ED020A00EB4006D5
:1029000007EB860696ED011A00EE810AD4ED030A64
:1029100000EB400607EB860696ED021A00EE810AF0
:102920000D4E06EB8006D6ED000A30EE200A02EBD3
:10293000800686ED000A461CF0B20328FFF67DAF44
:10294000F0BD000038010020500902205C01002089
:102950005C090220800100207809022010B52DEDCD
:10296000028BB0EE408A2748007838B303F0A2FE0D
:1029700000EE100AB8EEC00AF0EE408AF0EE680AE7
:10298000B0EE480A204800F06DFA1F4890ED080AA2
:10299000B5EEC00AF1EE10FA03D29FED1C0A80EDED
:1029A000080A194890ED080ABCEEC00A10EE100A99
:1029B00084B22146164801F08AFC20E003F07AFE3A
:1029C00000EE100AB8EEC00AB4EEC80AF1EE10FA32
:1029D00010D210480078401C0E4908700846007854
:1029E000C82807DD0120074908709FED0B0A06483B
:1029F00080ED0A0A41F28731054801F068FCBDEC20
:102A0000028B10BDA4010020C409022000000000B8
:102A100000040040A801002000401C4508B5072024
:102A200005F0DCFB00BF04F0D3F80028FBD100BFA9
:102A300003F02AFF0028FBD104F010FA044606F048
:102A400027FAA4490860FFF767FC1722A249A348A8
:102A500000F0ACFF01221146A14801F02FF801223D
:102A600002219F4801F02AF80021102000F04CFFBD
:102A70002FE100BF4FF0FF31012005F0CDF9012813
:102A8000F8D198499448401C04F010F996499248AE
:102A9000103003F041FF9448924B944A94490090BF
:102AA0009448FFF7C5FE8F48007800F00100002829
:102AB00046D091480078E8BB012141F2883001F00E
:102AC0004BF9DFED8E0A9FED8E0A8E4A01218E486A
:102AD00000F0C0FA854A86498C48FDF7B9FF8C4B57
:102AE0001A1F111F894803F071FD814890ED000AFB
:102AF000884880ED000A884880ED000A874880ED0C
:102B0000000A7B4890ED010A824880ED010A824864
:102B100080ED010A814880ED010A754890ED020AB6
:102B20007C4880ED020A7C4880ED020A7B4880EDFB
:102B3000020A00E005E070480078401C6E49087009
:102B4000BBE0754890ED000A744880ED000A7148BA
:102B500090ED000A704880ED000A90ED000A704880
:102B6000D0ED000A20EE200A6C48D0ED000A6C4837
:102B700090ED011A00EE810A5D48D0ED000A684828
:102B800090ED021A00EE810A624880ED000A624868
:102B900090ED010A614880ED010A5E4890ED010A5E
:102BA0005D4880ED010A90ED010A5D48D0ED000A14
:102BB00020EE200A5948D0ED010A594890ED011A3B
:102BC00000EE810A4A48D0ED010A554890ED021AFC
:102BD00000EE810A4F4880ED010A4F4890ED020A4D
:102BE0004E4880ED020A4B4890ED020A4A4880EDBB
:102BF000020A90ED020A4A48D0ED000A20EE200AAF
:102C00004648D0ED020A464890ED011A00EE810ACE
:102C10003748D0ED020A424890ED021A00EE810AD0
:102C20003C4880ED020A314B024632499FED3D0A95
:102C30003648FEF785F8364B1A1F111F334803F04C
:102C4000C5FC39480088B8B9384890ED000A3848C2
:102C500080ED000A354890ED010A354880ED010A03
:102C6000324890ED020A324880ED020A2E48008870
:102C7000401C2D49088020E02B480088B0F5FA7FE1
:102C80000FDA42F210715F2002F02CFA2948007826
:102C900098B114480278244B1649254803F042FDA8
:102CA0000BE021480088B0F5FA7F06D102F012FA55
:102CB0001D480088401C1C4908800A48D0ED040AC1
:102CC000B0EE600AFFF74AFE002005F031F91A491C
:102CD0000860CEE6300100200C0902201CA000088C
:102CE0000050014024090220680902209C090220AA
:102CF0009009022084090220A50100200080894556
:102D000000A08C4534A00008C4090220B4090220A8
:102D1000B0090220240A0220180A02200C0A02200C
:102D200040A000086F12833AA60100204409022047
:102D300050090220A40100203401002070B506468D
:102D40000C4615461548007838B3288888B91448C9
:102D500090ED000A134880ED000A114890ED010A39
:102D6000104880ED010A0E4890ED020A0D4880EDF2
:102D7000020A0D4802782B460C490A4803F0D2FC9F
:102D8000084890ED000A84ED000A90ED010A84EDF8
:102D9000010A90ED020A84ED020A70BDA401002030
:102DA000440902205009022024090220840902203B
:102DB00091ED000A054A82ED000A91ED010A82EDCB
:102DC000010A91ED020A82ED020A704744090220CD
:102DD00000BFFEE77047000070B5002100230F22FE
:102DE000C4781CB3174C246804F4E064C4F5E064B0
:102DF000C4F30721C1F10404E3B20A4144789C40C2
:102E0000E1B28478144021430C07210E0E4C057862
:102E10006155047804F01F050124AC4005786D115C
:102E2000AD0005F1E025C5F8004109E0047804F0A3
:102E30001F050124AC40054D0678761145F8264063
:102E400070BD00000CED00E000E400E080E100E077
:102E500002490143024A1160704700000000FA0570
:102E60000CED00E0B0EE401A10B99FED790A704702
:102E700090ED100A80ED110A90ED0F0A80ED100A16
:102E8000C0ED060A80ED071A30EEC10A80ED0F0A88
:102E90000178002975D190ED010AD0ED0F1A20EECE
:102EA000210A80ED090A90ED0A0AD0ED021A90ED90
:102EB0000F2A01EE820A80ED0A0A90ED0D0A80EDDC
:102EC0000E0A90ED0C0A80ED0D0A90ED0F0AD0ED80
:102ED000101A30EE610A80ED0C0A90ED030AD0ED75
:102EE0000C1A20EE210A80ED0B0A90ED0A0AD0EDB3
:102EF000051AB4EEE10AF1EE10FA04DD90ED050AD0
:102F000080ED0A0A10E090ED0A0AD0ED051AF1EE04
:102F1000611AB4EEE10AF1EE10FA05D290ED050A5D
:102F2000B1EE400A80ED0A0A90ED090AD0ED0A1AC6
:102F300030EE210AD0ED0B1A30EE210A80ED080A9E
:102F400090ED080AD0ED041AB4EEE10AF1EE10FAA1
:102F500004DD90ED040A80ED080A76E090ED080AA1
:102F6000D0ED041AF1EE611AB4EEE10AF1EE10FAB6
:102F70006BD290ED040AB1EE400A80ED080A64E0DD
:102F8000FFE70178012960D190ED0F0AD0ED101A0A
:102F900030EE610AD0ED011A20EE210A80ED090A17
:102FA00090ED020AD0ED0F1A20EE210A80ED0A0AF8
:102FB00090ED0D0A80ED0E0A90ED0C0A80ED0D0AE1
:102FC00090ED0F0AD0ED101AB0EE002A02EE610A61
:102FD000D0ED111A30EE210A80ED0C0A90ED030AB3
:102FE000D0ED0C1A20EE210A80ED0B0A90ED090AB3
:102FF000D0ED0A1A30EE210AD0ED0B1A30EE210A7C
:10300000D0ED081A30EE210A80ED080A90ED080A8A
:10301000D0ED041AB4EEE10AF1EE10FA04DD90ED01
:10302000040A80ED080A10E090ED080AD0ED041AB9
:10303000F1EE611AB4EEE10AF1EE10FA05D290ED6C
:10304000040AB1EE400A80ED080A90ED080A0EE786
:103050000000000000B102B97047017092ED001A43
:1030600080ED011A92ED011A80ED021A92ED021A1A
:1030700080ED031A80ED040AC0ED050A9FED0C1ADD
:1030800080ED0E1A80ED0D1A80ED0C1A9FED081AD6
:1030900080ED081A80ED0B1A80ED0A1A80ED091AEE
:1030A00080ED111A80ED101A80ED0F1A00BFD3E7E2
:1030B0000000000029B1064A12680243044B1A605E
:1030C00004E0034A12688243014B1A607047000013
:1030D0003038024029B1064A12680243044B1A6094
:1030E00004E0034A12688243014B1A6070470000F3
:1030F0004038024029B1064A12680243044B1A6064
:1031000004E0034A12688243014B1A6070470000D2
:103110002038024029B1064A12680243044B1A6063
:1031200004E0034A12688243014B1A6070470000B2
:103130004438024029B1064A12680243044B1A601F
:1031400004E0034A12688243014B1A607047000092
:1031500024380240F0B50021002200240225002678
:103160000223324F3F6807F00C0121B1042905D03A
:10317000082937D105E02E4F076036E02D4F076054
:1031800033E02A4F3F1F3F68C7F38056274F3F1F4A
:103190003F6807F03F036EB1264FB7FBF3F7DFF848
:1031A0008CC0ACF1040CDCF800C0CCF3881C07FB2D
:1031B0000CF40CE01E4FB7FBF3F7DFF870C0ACF176
:1031C000040CDCF800C0CCF3881C07FB0CF4174F90
:1031D0003F1F3F68C7F301477F1C7D00B4FBF5F735
:1031E000076002E0124F076000BF00BF0F4F3F684B
:1031F00007F0F0010909104F7A5C0768D740476073
:103200000A4F3F6807F4E051890A0B4F7A5C476820
:10321000D7408760054F3F6807F46041490B064F70
:103220007A5C4768D740C760F0BD000008380240AC
:103230000024F400001BB7001400002070B590B00B
:1032400004460E46154601214A48FFF733FF012187
:103250001020FFF75FFF01211020FFF76BFF002117
:103260001020FFF767FF072211464348FFF7E0F8F9
:1032700080200E9002208DF83C0000208DF83E004A
:1032800003208DF83D0000208DF83F000EA93A483C
:10329000FFF786F8394801F0F7F839480A9000201E
:1032A000ADF82C00ADF82E004FF48060ADF8300082
:1032B0000420ADF832000020ADF834000AA92F48F0
:1032C00001F0AAF9012240212C4801F0D4F8102184
:1032D0002A4801F0BBF8012240F22441274801F0BE
:1032E00075F90121254801F0BAF825208DF83C0038
:1032F00004208DF83D0000208DF83E0001208DF85F
:103300003F000FA8FFF768FD1E48FEF77DFA4FF05B
:10331000006001901948001D029003940020049061
:10332000059506904FF48060079000200890099062
:103330004FF480700A904FF440300B9000200C90B6
:103340000D900E900F9001A90E48FEF779FB002218
:1033500031460C48FEF70FFB01210A48FEF700FB3F
:1033600000210848FEF744FA01210648FEF740FA1A
:1033700010B070BD02004000000402400010014087
:10338000A0860100406402400146002901DD084694
:103390007047484200B2FBE710B50020AB49087007
:1033A00017E0AA48007800EB800101EBC000A849B3
:1033B00008440079C00938B10020A6490880A64910
:1033C0000880A649087010BDA0480078401C9F499D
:1033D00008709E4800780528E3DBA048007878B99B
:1033E0009D480088B0F5FA6F0ADD05F0B3FD9C49F1
:1033F00008600120994908700020974908803BE047
:1034000096480078022811D193480088B0F5FA6FE9
:103410000CDD0020914908708F4908808C48407C61
:1034200020F0800080308A49487425E08B4800787D
:10343000032821D188480088B0F5FA6F1CDD0020F0
:1034400086490870844908808148807F20F0800088
:1034500080307F49887703F037F9BDEEC00A10EE5F
:10346000100A0A3040B27F494870084690F90100BE
:103470002D2801DD2D2048707B480068B0F9000040
:1034800010F5167F27DA78480068B0F9020010F5C9
:10349000167F20DA74480068B0F90400B0F5167F92
:1034A00019DD71480068B0F9060010F5167F12DAD0
:1034B0006D480068807A02280DD16B480068C07A98
:1034C000022808D16548007828B963480088401C64
:1034D0006149088066E064480068B0F90000B0F512
:1034E000167F2ADD60480068B0F90200B0F5167F4B
:1034F00023DD5D480068B0F9040010F5167F1CDA82
:1035000059480068B0F90600B0F5167F15DD564839
:103510000068807A022810D153480068C07A0228D7
:103520000BD14E48007840B14B480088401C4A49B6
:10353000088002204949087034E04B480068B0F91F
:103540000000B0F5167F2ADD47480068B0F9020098
:1035500010F5167F23DA44480068B0F9040010F52E
:10356000167F1CDA40480068B0F9060010F5167F97
:1035700015DA3D480068807A022810D13A48006880
:10358000C07A02280BD13548007840B13248008813
:10359000401C3149088003203049087002E00020B7
:1035A0002D49088005F0D6FC3049086008460068BF
:1035B0002B490968401A44F62061884203D900204B
:1035C00026490870FFE62948006825490968401A1D
:1035D00042F2107188420AD92148006838B11F4868
:1035E000007820B149001F2001F07CFD10E01F4849
:1035F00000681B490968401A0AD01948006838B1A8
:103600001648007820B142F210715F2001F06AFD87
:103610001248007820B10F480088401C0D490880EE
:103620000C480088B0F5C87F05DD0C48007810B163
:1036300000200849088007480088C82804DD07489A
:10364000007808B101F046FD00BFBCE6E9000020AB
:1036500074050220F0000020F2000020F400002099
:10366000EC000020AC000020A8000020E4000020B6
:1036700010B52449B1F90000FFF786FEB0F52F7FA1
:1036800000DD24E01F49B1F90200FFF77DFEB0F52F
:103690002F7F00DD1BE01B49B1F90400FFF774FE2A
:1036A000B0F52F7F00DD12E01649B1F90600FFF7F3
:1036B0006BFEB0F52F7F00DD09E01248807A00B97B
:1036C00005E01048C07A00B901E0002010BD0020DC
:1036D0000C49088048808880C88008810220887250
:1036E00002210848C172002006498881002105484E
:1036F000C18101828174C174002002498882012045
:10370000E4E70000300A022010B50446002110480A
:1037100000F0A5FE00210F48FEF76AF821460D488B
:10372000FEF7BAF910210A4800F090FE4FF08151DF
:103730000848FEF729F808490648FEF73FF8012136
:103740000448FEF755F80121014800F088FE10BD3D
:1037500000100140406402400080201010B500219C
:10376000014800F07CFE10BD0010014000B101B91D
:1037700070470278437842EA0322C2F30A020A80C1
:103780004278D210837842EA4312C2F30A024A8096
:1037900082789211C37842EA8302037942EA832253
:1037A000C2F30A028A8002795210437942EAC312B4
:1037B000C2F30A02CA804279C2F301128A724279C4
:1037C00012119308CB728279C37942EA032212B2B2
:1037D0008A81027A437A42EA032213B201F10C028F
:1037E000CB81827AC37A42EA032213B201F10C023E
:1037F0000B82037B8B74437BCB74827BC37B42EA5B
:1038000003228A82027C437C42EA032212B20A81AA
:103810000A88A2F5806212B20A804A88A2F5806204
:1038200012B24A808A88A2F5806212B28A80CA885F
:10383000A2F5806212B2CA800A89A2F5806212B231
:103840000A8100BF94E7000000B587B00121202065
:10385000FFF730FC01210805FFF75CFC4FF46070B6
:10386000059002208DF8180000208DF81A00012024
:103870008DF81B0003208DF8190005A92048FEF7DC
:103880008FFD052207211E48FEF7D2FD05220821E3
:103890001B48FEF7CDFD052209211948FEF7C8FD9A
:1038A00001210805FFF746FC00214FF48010FFF7C7
:1038B00041FC0020ADF800004FF48270ADF802002A
:1038C0000020ADF804000220ADF806000120ADF89C
:1038D00008004002ADF80A003820ADF80C000020C6
:1038E000ADF80E000720ADF810006946054800F05D
:1038F000FCF80121034800F0D5F807B000BD000036
:1039000000140240005001400A4A12884FF2C77367
:103910001A40084B1A801A46128802431A801A4627
:1039200012880A431A801A46128842F040021A800E
:10393000704700000050014010B5044600211848AF
:10394000FDF756FF002116481830FDF751FF00BF64
:103950001348FEF71CF80028FAD100BF10481830B1
:10396000FEF715F80028F9D10E490D481830FDF77B
:103970000BFF0D490A48FDF707FF21460848FEF7EF
:103980008BF8214606481830FEF786F801210448D6
:103990001830FDF72DFF01210148FDF729FF10BD6B
:1039A00070640240000C00203000002070B590B020
:1039B00005460E46144601218805FFF77BFB44208F
:1039C0008DF83C0005208DF83D0000208DF83E006C
:1039D00001208DF83F000FA8FFF7FEF92F48FDF7F3
:1039E00013FF00BF2D48FDF7D2FF0028FAD14FF09A
:1039F000606000902A480190029600200390049491
:103A000005904FF480600690002007900890099080
:103A10004FF440300A9000200B900C900D900E90C7
:103A200069461E48FEF70CF8012210211B48FDF7DD
:103A3000E9FF00211948FDF7DBFE18481838FDF7AB
:103A4000E3FE00BF15481838FDF7A1FF0028F9D1A3
:103A50004FF0806000901248019002954020039042
:103A60000494002005904FF4806006900020079099
:103A7000089009904FF480300A9000200B900C9031
:103A80000D900E90694605481838FDF7D9FF0021C2
:103A900002481838FDF7ACFE10B070BD88640240D3
:103AA0000C50014021B1028842F04002028004E043
:103AB00002884FF6BF731A40028070471AB183889C
:103AC0000B43838002E083888B43838070470246E8
:103AD000002013890B400BB1012000E0002070474B
:103AE0000146888970478181704710B5002202889D
:103AF00002F441520B884C8823438C882343CC88A2
:103B000023430C8923434C8923438C892343CC8949
:103B100023431A430280838B4FF2FF742340838335
:103B20000B8A038210BD000030B500228B071C0FEA
:103B30000F2303FA04F20B4B8C1053F824309343F9
:103B4000084C8D1044F8253023468C1053F824304F
:103B50008C07240F00FA04F42343024C8D1044F820
:103B6000253030BD083801400CB500200190009090
:103B70004148006840F480303F49086000BF3E483B
:103B8000006800F4003000900198401C01900098FB
:103B900018B90198B0F5A04FF1D13748006800F48A
:103BA000003010B10120009001E00020009000984A
:103BB000012860D130484030006840F080502E49E4
:103BC000403108602D48006840F440402B490860AF
:103BD000294808300068284908310860084600680C
:103BE00040F4004008600846006840F4A0500860B7
:103BF0002348091F0860081F006840F08070091FF3
:103C0000086000BF1C48006800F000700028F9D070
:103C10001A48006840F480301849086000BF17480F
:103C2000406800F480300028F9D01448006840F45F
:103C300000301249086000BF1048406800F40030AE
:103C40000028F9D040F205700E4908600A48083093
:103C5000006820F003000849083108600846006841
:103C600040F00200086000BF03480830006800F020
:103C70000C000828F8D10CBD00380240007000404C
:103C8000062D4008003C0240042808D14FF0E021F6
:103C9000096941F004014FF0E022116107E04FF0A3
:103CA000E021096921F004014FF0E0221161704721
:103CB00010B505F03FF9012801D004F097FD10BDC3
:103CC00010B51548006840F47000134908601348A7
:103CD000006840F001001149086000200F490831D8
:103CE00008600E4800680E4908400C4908600D48FD
:103CF000091D0860081F006820F48020091F086063
:103D0000002006490C310860FFF72EFF4FF00060DD
:103D100001498039086010BD88ED00E0003802409C
:103D2000FFFFF6FE1030002410B50121084800F016
:103D3000C1F960B10121064800F0D6F805480268D3
:103D40004068521C40F1000002490A60486010BD02
:103D5000000400402801002030B58BB005460C4619
:103D600001210220FFF7B6F901210220FFF7A2F995
:103D7000022205212D48FEF75BFB01210220FFF7FF
:103D8000B9F900210220FFF7B5F91D208DF81400C4
:103D900005208DF8150000208DF8160001208DF803
:103DA000170005A8FFF718F8681E0990601E80B27A
:103DB000ADF820000020ADF82200ADF82800012267
:103DC00011461B4800F087F908A9194800F084FA49
:103DD0002020069002208DF81C0003208DF81D0085
:103DE00000208DF81E0002208DF81F0006A90F4844
:103DF000FEF7D6FA6020ADF800000120ADF8020011
:103E00000020ADF80C006946094800F0B5F908211A
:103E1000074800F003FA0121054800F059F8012194
:103E2000034800F064F80BB030BD0000000402400D
:103E30000004004010B50121064800F03BF938B1FC
:103E40000121044800F050F80021024800F04FF82A
:103E500010BD0000001000407FB505460C46012152
:103E60001020FFF737F901211020FFF743F9002157
:103E70001020FFF73FF9154800F054F8681E029033
:103E8000601E80B2ADF804000020ADF80600ADF869
:103E90000C0001A90D4800F01FFA012211460B4841
:103EA00000F019F936208DF8000004208DF801008B
:103EB00000208DF8020001208DF803006846FEF70F
:103EC0008BFF0121014800F012F87FBD0010004077
:103ED00021B1028842F08002028004E002884FF69D
:103EE0007F731A4002807047CA430282704721B133
:103EF000028842F00102028004E002884FF6FE735D
:103F00001A400280704731B1B0F8442042F40042B8
:103F1000A0F8442005E0B0F84420C2F30E02A0F857
:103F20004420704710B504465548844208D1012109
:103F30000846FFF7FFF800210120FFF7FBF89DE09E
:103F4000B4F1804F08D101210846FFF7D3F80021D2
:103F50000120FFF7CFF891E04A48844208D10121BF
:103F60000220FFF7C7F800210220FFF7C3F885E021
:103F70004548844208D101210420FFF7BBF8002105
:103F80000420FFF7B7F879E04048844208D10121C6
:103F90000820FFF7AFF800210820FFF7ABF86DE02D
:103FA0003B48844208D101211020FFF7A3F80021EB
:103FB0001020FFF79FF861E03648844208D10121C4
:103FC0002020FFF797F800212020FFF793F855E015
:103FD0003148844208D101210220FFF7ABF80021CB
:103FE0000220FFF7A7F849E02C48844209D10121BB
:103FF0000804FFF79FF800214FF48030FFF79AF88C
:104000003CE02748844209D101214804FFF792F897
:1040100000214FF40030FFF78DF82FE02148844253
:1040200009D101218804FFF785F800214FF4802091
:10403000FFF780F822E01C48844208D1012140208B
:10404000FFF758F800214020FFF754F816E0174812
:10405000844208D101218020FFF74CF80021802004
:10406000FFF748F80AE01248844207D10121801581
:10407000FFF740F80021A015FFF73CF810BD000045
:10408000000001400004004000080040000C004017
:1040900000100040001400400004014000400140B6
:1040A000004401400048014000180040001C00404E
:1040B0000020004030B50246002000230024158A6D
:1040C00005EA0103958905EA010413B10CB1012049
:1040D00000E0002030BD1AB183890B43838102E0E8
:1040E00083898B438381704770B5002400220023AD
:1040F000058C4FF6FE7635400584028C8388048B50
:104100004FF68F752C40B51E2C400D882C43751E24
:104110002A408D892A434D882A43104DA84202D057
:104120000F4DA84213D14FF6F7752A40CD892A4387
:104130004FF6FB752A408D882A434FF6FF652B40CA
:104140004FF6FF552B400D8A2B434D8A2B4383801E
:1041500004838D684563028470BD00000000014047
:10416000000401400A460021018B4FF6F773194005
:10417000114301837047000070B500240022002322
:10418000058C4FF6EF7635400584028C8388048BCE
:1041900048F6FF752C404FF6FF452C400D884FF632
:1041A000FF7606EA05252C434FF6DF752A408D89F8
:1041B00006EA05152A434D8806EA05152A43154DDA
:1041C000A84202D0144DA8421DD14FF67F752A4057
:1041D000CD894FF6FF7606EA05152A434FF6BF75DF
:1041E0002A408D8806EA05152A434FF6FF352B40F5
:1041F0004FF2FF752B400D8A06EA85052B434D8A49
:1042000006EA85052B43838004838D6885630284D9
:1042100070BD000000000140000401400A4600217A
:10422000018B4FF2FF7319404FF6FF7303EA02232D
:10423000194301837047000070B500220023002459
:10424000058C4EF6FF7635400584038C8488828B7E
:1042500048F6FF752A404FF6FF452A400D884FF675
:10426000FF7606EA05252A434DF6FF752B408D891A
:1042700006EA05352B434D8806EA05352B430A4DE2
:10428000A84202D0094DA84208D14BF6FF752C4038
:104290000D8A4FF6FF7606EA85152C4384808283CB
:1042A0008D680564038470BD000001400004014076
:1042B0000A460021818B4FF2FF7319404FF6FF73BE
:1042C00003EA022319438183704741637047816386
:1042D000704701647047000000220288184B984222
:1042E0000ED0184B98420BD0B0F1804F08D0164B2F
:1042F000984205D0154B984202D0154B984204D1F4
:104300004FF68F731A404B881A43124B984207D0CE
:10431000114B984204D04FF6FF431A400B891A43C1
:1043200002804B68C3620B880385054B984202D01C
:10433000044B984201D18B7A038601238382704714
:10434000000001400004014000040040000800405B
:10435000000C0040001000400014004010B540F276
:104360002551344800F008F918B1324800F0BEF980
:104370005FE040F224412F4800F0FEF8002858D0BA
:104380002C4800F0B3F92C48FDF70FFB40BB00218F
:104390002948FDF72DFA2848FDF703FBC0F124005A
:1043A0002649088024212448FDF776FB224800682E
:1043B00040F400202049086021491F48FDF7E4F936
:1043C00001211D48FDF714FA1C480088122830D13D
:1043D0001C491D48FFF7CAF90020FDF7C9FB28E07A
:1043E00000211548FDF704FA1348FDF7DAFAC0F189
:1043F00024001249088024210F48FDF74DFB0E4888
:10440000006820F400200C4908600D490A48FDF7B7
:10441000BBF901210848FDF7EBF90848008812288C
:1044200007D1084908482430FFF7A0F90020FDF71C
:104430009FFB10BD0010014040640240B00100200D
:1044400000003010300A0220460A022001F40072F7
:10445000B2F5007F00D100BFCA430280704721B18E
:10446000828942F40052828104E082894DF6FF7312
:104470001A40828170471AB1838A0B43838202E01B
:10448000838A8B438382704710B504463248844246
:1044900008D101211020FEF74DFE00211020FEF76B
:1044A00049FE57E02D48844209D101214804FEF716
:1044B00021FE00214FF40030FEF71CFE4AE02848A0
:1044C000844209D101218804FEF714FE00214FF433
:1044D0008020FEF70FFE3DE02248844209D10121F1
:1044E000C804FEF707FE00214FF40020FEF702FE8D
:1044F00030E01D48844209D101210805FEF7FAFD8C
:1045000000214FF48010FEF7F5FD23E017488442A8
:1045100008D101212020FEF70DFE00212020FEF70A
:1045200009FE17E01248844209D101218807FEF7ED
:10453000E1FD00214FF08040FEF7DCFD0AE00D4870
:10454000844207D101214005FEF7D4FD002160051A
:10455000FEF7D0FD10BD00000010014000440040F7
:1045600000480040004C0040005000400014014052
:1045700000780040007C004070B502460024002313
:104580000025002040F66A16B14200D100BFC1F3F9
:10459000421501F01F03012606FA03F3012D02D193
:1045A0009689334006E0022D02D1168A334001E09D
:1045B000968A33400C12012606FA04F41688344019
:1045C00013B10CB1012000E0002070BDF0B503462E
:1045D000002400260025002040F66A17B94200D1C9
:1045E00000BF1846C1F3421401F01F06012707FA65
:1045F00006F5012C01D10C3004E0022C01D1103061
:1046000000E014301AB107682F43076002E0076822
:10461000AF430760F0BD00002DE9FF4705460E4699
:104620000024A14600BFA046B08900B100BF2C8A7B
:1046300024F44054F08804432C82AC8941F20C608D
:104640008443B08831890843718908430443AC81AD
:10465000AC8A24F44074B0890443AC826846FEF707
:1046600079FD2048854202D01F48854202D1DDF8FD
:104670000C9001E0DDF80890A88900F4004040B1FA
:1046800009EBC90000EB091031684900B0FBF1F7F4
:1046900007E009EBC90000EB091031688900B0FBA5
:1046A000F1F76420B7FBF0F004012009642101FB5D
:1046B0001078A88900F4004040B1322000EBC80017
:1046C000B0FBF1F000F00700044308E0322000EBFB
:1046D00008106421B0FBF1F000F00F0004432C81BE
:1046E000BDE8FF87001001400014014001468888A2
:1046F000C0F30800704700BFFEE7000001F062FF52
:1047000004462DE094ED000ADFED160A20EE200AA3
:10471000154880ED000A94ED010ADFED120A20EE43
:10472000200A80ED010A94ED020ADFED0E0A20EE68
:10473000200A80ED020A052003F062FB08B902F0AE
:1047400095F94FF4FA7003F049FD02F085F94FF442
:10475000FA7003F043FD002003F0EAFB0349086010
:10476000D0E7000033336542900A0220CC010020DC
:104770004100080218BF04200A0E18BF40F00100D3
:104780004FF07F4232EA010108BF40F002000128E9
:1047900008BF05207047000010B54FF00E402DED0A
:1047A000028BB0EE408A18EE104A00EB4400B0F1E4
:1047B000506F4AD84FF0FC40B0EB440F22D2B0EE1D
:1047C000C80AF7EE000A30EEC00AF6EE000A60EE04
:1047D000208A18EE900A03F029FA01EE100A14F06C
:1047E000004F1DBFDFED2D0A9FED2D0AB1EE411ADE
:1047F000DFED2C0A08BF9FED2C0AF8EE001A21EE1F
:10480000218A05E0DFED290A68EE088AB0EE600A29
:104810009FED271ADFED271A30EE080A48EE811ABD
:104820009FED251A08EEA11ADFED241A48EE811A31
:104830009FED231A08EEA11A68EE281ABDEC028B30
:1048400001EE810A30EE200A10BD4FF0E440B0EBDB
:10485000440F0CD918EE100AFFF78AFF042808BF8E
:1048600000F070F9B0EE480ABDEC028B10BD4FF0BD
:104870007F40B0EB440F07D2B0EE480ABDEC028B8C
:10488000BDE8104000F050B90120FBF7C4FEBDECBC
:10489000028BBDE8104000F04DB900000000C9BF18
:1048A00022AAFDB90000C93F22AAFD39000000007C
:1048B00024FE1C3DC78AD83C1E67383D1B93993D9A
:1048C000AFAA2A3E10EE100A10B510EE901A4FF063
:1048D000684202EB40032DED028BB3F1654F3CBF04
:1048E00002EB4102B2F1654F7CD200BFC0F3C75367
:1048F000C1F3C7529A1A1B2A09DD10F0004F14BFEA
:104900009FED6E0A9FED6E0ABDEC028B10BD12F199
:104910001A0F1BDA11F0004F09D010F0004F0CBF36
:104920009FED680A9FED680ABDEC028B10BD80EE1A
:10493000208A18EE100AFFF71BFF042808BF00F0BA
:1049400001F9B0EE480ABDEC028B10BD4200B2EB9B
:10495000410F37D910F0004F19BFDFED5C1A9FED02
:104960005C1ADFED5C1A9FED5C1AB0EE602A0A4615
:10497000F1EE400A80F00041B0EE420A10460A1AF9
:104980005200B2F1807F34D2484010F0004FDFED8A
:10499000532A9FED533A1DBFBEEE002A71EEE21A74
:1049A00031EE431AB6EE002A04BF71EEA21A31EEC0
:1049B000031AF0EE402A42EE602A40EE020A82EE2E
:1049C000A02A18E011F0004F04BF9FED461AF0EE48
:1049D000411AD4D010F0004F1CBFDFED431A9FEDF9
:1049E000431A00E026E004BFDFED411A9FED411AB3
:1049F000C5E780EE202A22EE020ADFED3F0ADFED56
:104A00003F2ABDEC028B40EE202ADFED3D0A40EE4E
:104A1000220ADFED3C2A40EE202ADFED3B0A40EE81
:104A2000220A22EE000A00EE201A31EE020A30EECF
:104A3000210A10BD4FF07F42B2EB400F28BFB2EB0E
:104A4000410F05D2BDEC028BBDE8104000F06FB8FD
:104A500040EA01035B0008BF41F0FF410BD0B2EB1D
:104A6000400F08BFB2EB410F08D120F0804000EEAC
:104A7000100A21F0804100EE901A37E7B2EB400FA8
:104A800012BF5FEA410240F0FF4001F000413FF4F5
:104A90002DAF4A0092EA40033FF528AF002AACBF91
:104AA0009FED1A1A9FED1A1A20EE010A60EE810A94
:104AB00010EE100A10EE901A18E70000DB0FC9BFC5
:104AC000DB0FC93FDB0F4940DB0F49C00000C9BF06
:104AD00022AAFDB90000C93F22AAFD390060ED3EBF
:104AE000C30ACE3700000000000049C022AA7DBAE8
:104AF0000000494022AA7D3A2DAD65BD8FB8D53D55
:104B00000FB511BE61C84C3EA8AAAABE0000804FD6
:104B10000000802F2DED020B019820F00040019045
:104B20009DED000B02B0704730EE000A704730EE8A
:104B3000200A7047DFED020A80EEA00A70470000ED
:104B4000000000009FED020A20EE000A70470000FE
:104B50000000001070B52DED028B8AB005460C46A2
:104B600016460DB104B11EB90AB0BDEC028B70BD82
:104B700094ED000AB5EEC00AF1EE10FA0DD194EDF5
:104B8000010AB5EEC00AF1EE10FA06D194ED020A60
:104B9000B5EEC00AF1EE10FA7DD09FED600AB0EEDE
:104BA000408A002007900890099004900590069094
:104BB0005B4A07CA01AB07C395ED010AD5ED030AAD
:104BC00020EE200AD5ED000A95ED021A00EEC10A8A
:104BD000F0EE000A20EE200A8DED070A95ED000A9E
:104BE000D5ED010A20EE200AD5ED020A95ED031A53
:104BF00000EE810AF0EE000A20EE200A8DED080A90
:104C000095ED000A20EE000AD5ED030A95ED031A92
:104C100000EE810AF7EE000AB0EE001A51EE000A2B
:104C2000CDED090A01AB22463146284600F07AF85C
:104C3000D4ED000A60EEA00A94ED011AD4ED011A39
:104C400041EE210A94ED021AD4ED021A41EE210A36
:104C5000B0EE600AFCF74AF8B0EE408A94ED000A24
:104C600020EE080A84ED000A94ED010A20EE080AFD
:104C700084ED010A94ED020A20EE080A84ED020A8E
:104C800094ED010ADDED090A20EE200AD4ED020AB6
:104C90009DED081A00E03EE000EEC10A8DED040A29
:104CA00094ED020ADDED070A20EE200AD4ED000A99
:104CB0009DED091A00EEC10A8DED050A94ED000A7A
:104CC000DDED080A20EE200AD4ED010A9DED071A59
:104CD00000EEC10A8DED060A96ED000ADDED010A2F
:104CE0009DED041A00EE810A86ED000A96ED010A98
:104CF000DDED020A9DED051A00EE810A86ED010A3E
:104D000096ED020ADDED030A9DED061A00EE810A1A
:104D100086ED020A00BF00BF26E700000000000089
:104D20004CA000082DE9F0412DED048B07460D46FF
:104D300014461E469FED580AB0EE409A9FED560A63
:104D4000B0EE408A9FED540AF0EE408AD4ED000A9E
:104D500060EEA00A94ED011AD4ED011A41EE210A89
:104D600094ED021AD4ED021A41EE210AB0EE600A67
:104D7000FBF7BCFFF7EE000A80EE801AB0EE419A16
:104D8000D5ED000AB0EE600AFBF744FEF0EE409A63
:104D9000D5ED010AB0EE600AFBF73CFE79EE809A91
:104DA000D5ED020AB0EE600AFBF734FE39EE800A58
:104DB000F0EE408A3948D0ED000A79EE600AB0EE94
:104DC000600AFBF727FEB0EE408A9FED350AB4EE8D
:104DD000C08AF1EE10FA06DC9FED320AF4EEC08ACA
:104DE000F1EE10FA53DD9FED2C2AB0EE420A9FED52
:104DF0002A2AF0EE421AB7EE002AF0EE420A9FEDA0
:104E0000262AB0EE421AB5EEC08AF1EE10FA05DDA0
:104E10009FED232AC2EE082AB0EE620A9FED222AF5
:104E2000B4EEC20AF1EE10FA03D29FED1B2AB0EEE7
:104E3000420AF5EEC08AF1EE10FA05DD9FED192A5F
:104E4000C2EE282AF0EE621AB7EE002AB4EEC20AC9
:104E5000F1EE10FA03D220EE802AF0EE420AB7EE0D
:104E6000002AF4EEC21AF1EE10FA03D220EEA12AC3
:104E7000F0EE420A9FED0D2A20EE822AB0EE421A91
:104E800086ED001A86ED011A86ED021A00BFBDEC10
:104E9000048BBDE8F081000000000000DC01002070
:104EA000CDCCCC3D8FC2F53D9A99993ECDCC4C3EB0
:104EB00010B52DED048B86B00446B0EE408AF0EEBE
:104EC000608AB0EE419A0020039004900590009013
:104ED00001900290B0EE000AC8EE000AF0EE609A6F
:104EE000B0EE690AFBF78AFD8DED030AB0EE000A09
:104EF000C8EE800AF0EE609AB0EE690AFBF77EFD1C
:104F00008DED040AB0EE000AC9EE000AF0EE609AD8
:104F1000B0EE690AFBF772FD8DED050AB0EE000AEE
:104F2000C8EE000AF0EE609AB0EE690AFBF7FCFEEC
:104F30008DED000AB0EE000AC8EE800AF0EE609A2D
:104F4000B0EE690AFBF7F0FE8DED010AB0EE000A43
:104F5000C9EE000AF0EE609AB0EE690AFBF7E4FED3
:104F60008DED020A9DED050ADDED040A20EE200A12
:104F7000DDED030A20EE200ADDED020A9DED011AA7
:104F800060EE810A9DED001A00EE810A84ED000AB0
:104F90009DED020ADDED040A20EE200ADDED030A94
:104FA00020EE200ADDED050A9DED011A60EE810A72
:104FB0009DED001A00EEC10A84ED010A9DED050A7F
:104FC000DDED010A20EE200ADDED030A20EE200AC5
:104FD000DDED020A9DED041A60EE810A9DED001AD6
:104FE00000EE810A84ED020A9DED050ADDED040A5A
:104FF00020EE200ADDED000A20EE200ADDED020A97
:105000009DED011A60EE810A9DED031A00EEC10AC2
:1050100084ED030A06B0BDEC048B10BD30B58BB037
:1050200005460C4601214020FEF754F8012180205E
:10503000FEF740F801214020FEF75CF800214020F7
:10504000FEF758F8092206212048FDF7F1F9402023
:10505000099002208DF8280003208DF829000020F7
:105060008DF82A0002208DF82B0009A91748FDF7BA
:1050700097F96020ADF804000120ADF8060000208B
:10508000ADF8100001A91248FFF72EF808211048CA
:10509000FFF768F801210E48FEF71AFF681E079017
:1050A000601E80B2ADF818000020ADF81A00ADF80F
:1050B000200006A90648FFF70FF901210448FEF772
:1050C00016FF00F007F80BB030BD0000001C0240D6
:1050D0000018004010B500210148FFF7F6F810BD98
:1050E0000018004070B504460D4604480480294667
:1050F00002482838FFF7E9F870BD00002818004082
:10510000F8B50024002500BF69E03649681801227F
:10511000694601F0E5F89DF8000004EB840101EB1D
:10512000C401314A50549DF8010004EB840101EBA5
:10513000C401114448709DF8020004EB840101EBA6
:10514000C401114488709DF8030004EB840101EB55
:10515000C4011144C870281D85B204EB840303EB1D
:10516000C403164633441B7903F07F0204EB840327
:1051700003EBC4033344D3F805101A4BE81801F0CD
:10518000AFF804EB840000EBC4003146084400791A
:1051900000F07F0005EB800085B204EB840000EB9B
:1051A000C4000844C078552817D004EB840000EBF5
:1051B000C4000844D0F8090078B104EB840000EB87
:1051C000C4000844007920F08000803004EB8401A2
:1051D00001EBC401324611440871601CC4B2052CB5
:1051E00093DBF8BD00001E0874050220F0B59FB0E7
:1051F000002400251E2600BF2DE001A8284404EB52
:10520000840101EBC401184A114409680160281D9A
:1052100085B204EB840303EBC40317463B441B79BC
:105220005B06DA0D04EB840303EBC4033B44D3F8C1
:10523000051001AB5819FBF740F904EB840000EBB3
:10524000C40039460844007900F07F0005EB800077
:1052500085B2601CC4B2052CCFDB1E2201A9034815
:1052600001F04EF81FB0F0BD7405022000001E08CA
:1052700070B506460C46354634B9294605F10C0092
:10528000FDF796FD002070BD012C1BD10E4A29466A
:1052900005F10C00FDF752FD0B48008844F6206133
:1052A000884206DD002008490880FFF713FF01202F
:1052B000E9E7FEF753FA42F210715F20FFF712FFA1
:1052C0000020E0E70020DEE7F600002070B505468C
:1052D0000C460CB9012070BD00200F49087001F088
:1052E000F3F9BDEEC00A10EE100A0A3040B20A49C6
:1052F0004870084690F901002D2801DD2D204870E6
:1053000043F23900044948809FED040A10EE100A68
:1053100048600120DFE70000AC000020DF8FB441CF
:1053200010B5002400BF26E02748015D04EB84008F
:1053300000EBC400254A1044007961F3060004EB39
:10534000840101EBC40111440871214850F8240084
:1053500004EB840101EBC4011144C1F805001D48B0
:1053600050F8240004EB840101EBC4011144C1F89E
:105370000900601CC4B2052CD6DBFFF7C1FE002477
:105380001FE004EB840000EBC40010490844C0781F
:10539000552814D104EB840000EBC4000844D0F875
:1053A000090060B10A4951F8240004EB840101EBC3
:1053B000C401064B1944D1F8092000219047601C14
:1053C000C4B2052CDDDB10BDC8000020740502202E
:1053D000B4000020D000002001F072F94A490860B2
:1053E00091E0FDF7D9FF0020484908707EE047486A
:1053F000007800EB800101EBC000454908440079CA
:10540000C00900286DD04148007800EB800101EB15
:10541000C0003F490844D0F80900002861D03D4948
:105420003A4B1B7851F823003849097801EB810386
:1054300003EBC101364B1944D1F8092001219047F3
:10544000F0B33248007800EB40003349085C2F4944
:10545000097801EB810202EBC1012D4A50542B481F
:10546000007800EB40002C4908444078274909782F
:1054700001EB810202EBC101254A11444870234827
:10548000007800EB40002449084480781F490978DF
:1054900001EB810202EBC1011D4A114488705520C5
:1054A0001A49097801EB810202EBC101184A114443
:1054B000C8701648007800EB800101EBC00000E0E6
:1054C0000FE011460844007920F080000F49097868
:1054D00001EB810202EBC1010D4A11440871FFF793
:1054E00085FE0A480078401C084908700748007883
:1054F0000528FFF67CAF012002F070FE002002F0CC
:1055000017FD064908606CE7A8000020E8000020AD
:1055100074050220B4000020CA9F0008A4000020E7
:105520002DE9F04107460C4615461E4617B10CB151
:1055300005B10EB9BDE8F0812048007830B9334696
:105540002A462146384600F0F3FD35E01B48007836
:10555000012806D133462A462146384600F080FB12
:105560002AE016480078022806D133462A4621460A
:10557000384600F02FFA1FE010480078032806D1C3
:1055800033462A462146384600F042F914E00B48DB
:105590000078042806D133462A462146384600F0D2
:1055A0003DFB09E005480078052805D133462A4629
:1055B0002146384600F06AFB00BFBBE7FC00002034
:1055C00000B970470168897A032903D104211E4A72
:1055D00011700EE00168897A022903D104211A4A68
:1055E000117006E00168897A012902D10221164A68
:1055F00011701549097811B90321017421E012498C
:105600000978012902D1022101741AE00E490978B2
:10561000022902D10021017413E00B490978032902
:1056200002D1012101740CE007490978042902D153
:105630000221017405E004490978052901D10321FB
:10564000017400BFBDE70000FC00002030B52DED67
:10565000088B85B005469FED6D0AB0EE408A9FED40
:105660006B0AB0EE409A9FED690AF0EE408A002086
:1056700001900290039004900024D5ED801AB0EEC2
:10568000611AD5ED7F1AF0EE610AD5ED7E1AB0EE03
:10569000610A01A800F022FD287C03281AD100BF6E
:1056A00012E001A800EB840090ED000ABDEEC00AF4
:1056B00010EE100A01B204EB840205F1140000EBB5
:1056C00082000182601CC4B2042CEADB05B0BDEC90
:1056D000088B30BD002434E001A800EB840090ED7D
:1056E000000A04EB840105F1140000EB810080ED59
:1056F000030A04EB840205F1140000EB820090ED34
:10570000030A10EE101A084604F04EFA41EC1B0B87
:10571000B0EE4B0AF0EE6B0AFFF7FCF9B0EE40AAD0
:10572000F0EE60AA51EC1A0B03F05CFE08EE900A52
:10573000B4EEE88AF1EE10FA01D2B0EE688A601C8D
:10574000C4B2042CC8DBB1EE000AB4EEC08AF1EE9C
:1057500010FA1DDDB1EE000AC0EE080AB0EE609A44
:10576000002413E004EB840105F1140000EB810038
:1057700090ED030A20EE090A04EB840105F1140000
:1057800000EB810080ED030A601CC4B2042CE9DB4D
:1057900000241DE004EB840205F1140101EB8201F9
:1057A00091ED031AF0EE410A04EB840205F11401B5
:1057B00001EB820191ED021AB0EE410A04EBC40242
:1057C00005F1640101EBC200FDF74CFB601CC4B2A3
:1057D000042CDFDB002415E004EBC40105F16400B8
:1057E00000EBC10090ED080ABDEEC00A10EE100AF1
:1057F00001B204EB840205F1140000EB8200018287
:10580000601CC4B2042CE7DB00BF5FE700000000AF
:105810002DE9F04106460F4615461C4616B10FB15C
:1058200005B10CB9BDE8F08122463946304600F09A
:105830005BFAD4ED830A2068B0F9040001EE100A87
:10584000B8EEC11ADFED071A41EEC10AB0EE600AE8
:105850009FED051ADFED050A01F026F985ED000A36
:1058600000BFDFE7BD370636DB0F4940DB0F49C01D
:1058700070B5044604B970BD002500BF2DE005EBEE
:10588000850104F1140050F82100B0F9020000EE87
:10589000100AB8EEC00ADFED4A0A20EE200A05EB36
:1058A000850104F1140000EB810080ED020A05EB94
:1058B000C50104F1640000EBC10090ED0C0ADFEDBE
:1058C000410A20EE200A05EB850104F1140000EBEB
:1058D000810080ED010A681CC5B2042DCFDB94ED78
:1058E000070AB1EE400AD4ED0C0A30EE200AD4EDDE
:1058F000110A30EE200AD4ED160A30EE600AF5EEF9
:10590000000A20EE200A84ED7B0A94ED070AB1EE2E
:10591000400AD4ED0C0A30EE600AD4ED110A30EEE4
:10592000200AD4ED160A30EE200AF5EE000A20EE29
:10593000200A84ED7C0A94ED070AB1EE400AD4ED0A
:105940000C0A30EE600AD4ED110A30EE600AD4ED94
:10595000160A30EE600AF5EE000A20EE200ADFEDAE
:105960001A0A80EE201A84ED7D1AE068D0ED000A54
:10597000606890ED2E1A70EEC10AB0EE600A9FEDDD
:10598000131ADFED130A01F08FF884ED880AE0683E
:10599000D0ED010AA06890ED2E1A70EEC10AB0EEAB
:1059A000600A9FED0A1ADFED0A0A01F07DF884ED26
:1059B000890AE06890ED020A84ED8A0A00BF5AE77E
:1059C0000A01DA390000FA43CDCC4C3EDB0F4940E6
:1059D000DB0F49C02DE9F04107460E4615461C462F
:1059E00017B10EB105B10CB9BDE8F08122463146C0
:1059F000384600F079F92068007D00F0200058B1A9
:105A00003248007858B90120304908709FED300ABB
:105A1000304880ED000A02E000202C490870206820
:105A2000007D00F0010070B92068007D00F00200E8
:105A300048B92068007D00F0040020B92068007D8E
:105A400000F0080028B19FED240A244880ED000AE8
:105A500004E09FED230A214880ED000A1B480078EE
:105A6000B0B11C4890ED000AFAF7CEFC1B48D0ED0F
:105A7000000A20EE200A1B4880ED000A154890ED30
:105A8000000ADFED190A30EE200A80ED000A04E07A
:105A90009FED0F0A134880ED000A0E4890ED000AB2
:105AA000DFED120AB4EEE00AF1EE10FA07DD90ED38
:105AB000000ADFED0E0A30EE600A80ED000A0948A8
:105AC00090ED000A85ED000A00BF8DE70C01002073
:105AD00000000000000100207CD9A03E0801002049
